{
  "contractName": "ERC20",
  "abi": [
    {
      "inputs": [
        {
          "internalType": "string",
          "name": "_name",
          "type": "string"
        },
        {
          "internalType": "string",
          "name": "_symbol",
          "type": "string"
        },
        {
          "internalType": "uint256",
          "name": "_totalSupply",
          "type": "uint256"
        }
      ],
      "stateMutability": "nonpayable",
      "type": "constructor"
    },
    {
      "anonymous": false,
      "inputs": [
        {
          "indexed": true,
          "internalType": "address",
          "name": "_owner",
          "type": "address"
        },
        {
          "indexed": true,
          "internalType": "address",
          "name": "_spender",
          "type": "address"
        },
        {
          "indexed": false,
          "internalType": "uint256",
          "name": "_value",
          "type": "uint256"
        }
      ],
      "name": "Approval",
      "type": "event"
    },
    {
      "anonymous": false,
      "inputs": [
        {
          "indexed": true,
          "internalType": "address",
          "name": "_from",
          "type": "address"
        },
        {
          "indexed": true,
          "internalType": "address",
          "name": "_to",
          "type": "address"
        },
        {
          "indexed": false,
          "internalType": "uint256",
          "name": "_value",
          "type": "uint256"
        }
      ],
      "name": "Transfer",
      "type": "event"
    },
    {
      "inputs": [],
      "name": "decimals",
      "outputs": [
        {
          "internalType": "uint8",
          "name": "",
          "type": "uint8"
        }
      ],
      "stateMutability": "view",
      "type": "function",
      "constant": true
    },
    {
      "inputs": [],
      "name": "name",
      "outputs": [
        {
          "internalType": "string",
          "name": "",
          "type": "string"
        }
      ],
      "stateMutability": "view",
      "type": "function",
      "constant": true
    },
    {
      "inputs": [],
      "name": "symbol",
      "outputs": [
        {
          "internalType": "string",
          "name": "",
          "type": "string"
        }
      ],
      "stateMutability": "view",
      "type": "function",
      "constant": true
    },
    {
      "inputs": [],
      "name": "totalSupply",
      "outputs": [
        {
          "internalType": "uint256",
          "name": "",
          "type": "uint256"
        }
      ],
      "stateMutability": "view",
      "type": "function",
      "constant": true
    },
    {
      "inputs": [
        {
          "internalType": "address",
          "name": "_owner",
          "type": "address"
        }
      ],
      "name": "balanceOf",
      "outputs": [
        {
          "internalType": "uint256",
          "name": "",
          "type": "uint256"
        }
      ],
      "stateMutability": "view",
      "type": "function",
      "constant": true
    },
    {
      "inputs": [
        {
          "internalType": "address",
          "name": "_owner",
          "type": "address"
        },
        {
          "internalType": "address",
          "name": "_spender",
          "type": "address"
        }
      ],
      "name": "allownace",
      "outputs": [
        {
          "internalType": "uint256",
          "name": "",
          "type": "uint256"
        }
      ],
      "stateMutability": "view",
      "type": "function",
      "constant": true
    },
    {
      "inputs": [
        {
          "internalType": "address",
          "name": "_to",
          "type": "address"
        },
        {
          "internalType": "uint256",
          "name": "_value",
          "type": "uint256"
        }
      ],
      "name": "transfer",
      "outputs": [
        {
          "internalType": "bool",
          "name": "",
          "type": "bool"
        }
      ],
      "stateMutability": "nonpayable",
      "type": "function"
    },
    {
      "inputs": [
        {
          "internalType": "address",
          "name": "_from",
          "type": "address"
        },
        {
          "internalType": "address",
          "name": "_to",
          "type": "address"
        },
        {
          "internalType": "uint256",
          "name": "_value",
          "type": "uint256"
        }
      ],
      "name": "transferFrom",
      "outputs": [
        {
          "internalType": "bool",
          "name": "",
          "type": "bool"
        }
      ],
      "stateMutability": "nonpayable",
      "type": "function"
    },
    {
      "inputs": [
        {
          "internalType": "address",
          "name": "_spender",
          "type": "address"
        },
        {
          "internalType": "uint256",
          "name": "_value",
          "type": "uint256"
        }
      ],
      "name": "approve",
      "outputs": [
        {
          "internalType": "bool",
          "name": "",
          "type": "bool"
        }
      ],
      "stateMutability": "nonpayable",
      "type": "function"
    }
  ],
  "bytecode": "0x60806040526012600260006101000a81548160ff021916908360ff1602179055503480156200002d57600080fd5b506040516200129338038062001293833981810160405281019062000053919062000363565b82600090805190602001906200006b929190620000db565b50816001908051906020019062000084929190620000db565b5080600381905550600354600460003373ffffffffffffffffffffffffffffffffffffffff1673ffffffffffffffffffffffffffffffffffffffff1681526020019081526020016000208190555050505062000461565b828054620000e9906200042c565b90600052602060002090601f0160209004810192826200010d576000855562000159565b82601f106200012857805160ff191683800117855562000159565b8280016001018555821562000159579182015b82811115620001585782518255916020019190600101906200013b565b5b5090506200016891906200016c565b5090565b5b80821115620001875760008160009055506001016200016d565b5090565b6000604051905090565b600080fd5b600080fd5b600080fd5b600080fd5b6000601f19601f8301169050919050565b7f4e487b7100000000000000000000000000000000000000000000000000000000600052604160045260246000fd5b620001f482620001a9565b810181811067ffffffffffffffff82111715620002165762000215620001ba565b5b80604052505050565b60006200022b6200018b565b9050620002398282620001e9565b919050565b600067ffffffffffffffff8211156200025c576200025b620001ba565b5b6200026782620001a9565b9050602081019050919050565b60005b838110156200029457808201518184015260208101905062000277565b83811115620002a4576000848401525b50505050565b6000620002c1620002bb846200023e565b6200021f565b905082815260208101848484011115620002e057620002df620001a4565b5b620002ed84828562000274565b509392505050565b600082601f8301126200030d576200030c6200019f565b5b81516200031f848260208601620002aa565b91505092915050565b6000819050919050565b6200033d8162000328565b81146200034957600080fd5b50565b6000815190506200035d8162000332565b92915050565b6000806000606084860312156200037f576200037e62000195565b5b600084015167ffffffffffffffff811115620003a0576200039f6200019a565b5b620003ae86828701620002f5565b935050602084015167ffffffffffffffff811115620003d257620003d16200019a565b5b620003e086828701620002f5565b9250506040620003f3868287016200034c565b9150509250925092565b7f4e487b7100000000000000000000000000000000000000000000000000000000600052602260045260246000fd5b600060028204905060018216806200044557607f821691505b6020821081036200045b576200045a620003fd565b5b50919050565b610e2280620004716000396000f3fe608060405234801561001057600080fd5b50600436106100935760003560e01c8063313ce56711610066578063313ce5671461013457806348ab74801461015257806370a082311461018257806395d89b41146101b2578063a9059cbb146101d057610093565b806306fdde0314610098578063095ea7b3146100b657806318160ddd146100e657806323b872dd14610104575b600080fd5b6100a0610200565b6040516100ad9190610917565b60405180910390f35b6100d060048036038101906100cb91906109d2565b61028e565b6040516100dd9190610a2d565b60405180910390f35b6100ee610380565b6040516100fb9190610a57565b60405180910390f35b61011e60048036038101906101199190610a72565b610386565b60405161012b9190610a2d565b60405180910390f35b61013c6104f0565b6040516101499190610ae1565b60405180910390f35b61016c60048036038101906101679190610afc565b610503565b6040516101799190610a57565b60405180910390f35b61019c60048036038101906101979190610b3c565b61058a565b6040516101a99190610a57565b60405180910390f35b6101ba6105d3565b6040516101c79190610917565b60405180910390f35b6101ea60048036038101906101e591906109d2565b610661565b6040516101f79190610a2d565b60405180910390f35b6000805461020d90610b98565b80601f016020809104026020016040519081016040528092919081815260200182805461023990610b98565b80156102865780601f1061025b57610100808354040283529160200191610286565b820191906000526020600020905b81548152906001019060200180831161026957829003601f168201915b505050505081565b600081600560003373ffffffffffffffffffffffffffffffffffffffff1673ffffffffffffffffffffffffffffffffffffffff16815260200190815260200160002060008573ffffffffffffffffffffffffffffffffffffffff1673ffffffffffffffffffffffffffffffffffffffff168152602001908152602001600020819055508273ffffffffffffffffffffffffffffffffffffffff163373ffffffffffffffffffffffffffffffffffffffff167f8c5be1e5ebec7d5bd14f71427d1e84f3dd0314c0f7b2291e5b200ac8c7c3b9258460405161036e9190610a57565b60405180910390a36001905092915050565b60035481565b600081600560008673ffffffffffffffffffffffffffffffffffffffff1673ffffffffffffffffffffffffffffffffffffffff16815260200190815260200160002060003373ffffffffffffffffffffffffffffffffffffffff1673ffffffffffffffffffffffffffffffffffffffff168152602001908152602001600020541015610447576040517f08c379a000000000000000000000000000000000000000000000000000000000815260040161043e90610c3b565b60405180910390fd5b610452848484610678565b81600560008673ffffffffffffffffffffffffffffffffffffffff1673ffffffffffffffffffffffffffffffffffffffff16815260200190815260200160002060003373ffffffffffffffffffffffffffffffffffffffff1673ffffffffffffffffffffffffffffffffffffffff16815260200190815260200160002060008282546104de9190610c8a565b92505081905550600190509392505050565b600260009054906101000a900460ff1681565b6000600560008473ffffffffffffffffffffffffffffffffffffffff1673ffffffffffffffffffffffffffffffffffffffff16815260200190815260200160002060008373ffffffffffffffffffffffffffffffffffffffff1673ffffffffffffffffffffffffffffffffffffffff16815260200190815260200160002054905092915050565b6000600460008373ffffffffffffffffffffffffffffffffffffffff1673ffffffffffffffffffffffffffffffffffffffff168152602001908152602001600020549050919050565b600180546105e090610b98565b80601f016020809104026020016040519081016040528092919081815260200182805461060c90610b98565b80156106595780601f1061062e57610100808354040283529160200191610659565b820191906000526020600020905b81548152906001019060200180831161063c57829003601f168201915b505050505081565b600061066e338484610678565b6001905092915050565b600460008473ffffffffffffffffffffffffffffffffffffffff1673ffffffffffffffffffffffffffffffffffffffff168152602001908152602001600020548111156106fa576040517f08c379a00000000000000000000000000000000000000000000000000000000081526004016106f190610d0a565b60405180910390fd5b8173ffffffffffffffffffffffffffffffffffffffff168373ffffffffffffffffffffffffffffffffffffffff1603610768576040517f08c379a000000000000000000000000000000000000000000000000000000000815260040161075f90610d76565b60405180910390fd5b80600460008573ffffffffffffffffffffffffffffffffffffffff1673ffffffffffffffffffffffffffffffffffffffff16815260200190815260200160002060008282546107b79190610c8a565b9250508190555080600460008473ffffffffffffffffffffffffffffffffffffffff1673ffffffffffffffffffffffffffffffffffffffff168152602001908152602001600020600082825461080d9190610d96565b925050819055508173ffffffffffffffffffffffffffffffffffffffff168373ffffffffffffffffffffffffffffffffffffffff167fddf252ad1be2c89b69c2b068fc378daa952ba7f163c4a11628f55a4df523b3ef836040516108719190610a57565b60405180910390a3505050565b600081519050919050565b600082825260208201905092915050565b60005b838110156108b857808201518184015260208101905061089d565b838111156108c7576000848401525b50505050565b6000601f19601f8301169050919050565b60006108e98261087e565b6108f38185610889565b935061090381856020860161089a565b61090c816108cd565b840191505092915050565b6000602082019050818103600083015261093181846108de565b905092915050565b600080fd5b600073ffffffffffffffffffffffffffffffffffffffff82169050919050565b60006109698261093e565b9050919050565b6109798161095e565b811461098457600080fd5b50565b60008135905061099681610970565b92915050565b6000819050919050565b6109af8161099c565b81146109ba57600080fd5b50565b6000813590506109cc816109a6565b92915050565b600080604083850312156109e9576109e8610939565b5b60006109f785828601610987565b9250506020610a08858286016109bd565b9150509250929050565b60008115159050919050565b610a2781610a12565b82525050565b6000602082019050610a426000830184610a1e565b92915050565b610a518161099c565b82525050565b6000602082019050610a6c6000830184610a48565b92915050565b600080600060608486031215610a8b57610a8a610939565b5b6000610a9986828701610987565b9350506020610aaa86828701610987565b9250506040610abb868287016109bd565b9150509250925092565b600060ff82169050919050565b610adb81610ac5565b82525050565b6000602082019050610af66000830184610ad2565b92915050565b60008060408385031215610b1357610b12610939565b5b6000610b2185828601610987565b9250506020610b3285828601610987565b9150509250929050565b600060208284031215610b5257610b51610939565b5b6000610b6084828501610987565b91505092915050565b7f4e487b7100000000000000000000000000000000000000000000000000000000600052602260045260246000fd5b60006002820490506001821680610bb057607f821691505b602082108103610bc357610bc2610b69565b5b50919050565b7f5472616e7366657220616d6f756e74206578636565647320616c6c6f776e616360008201527f6500000000000000000000000000000000000000000000000000000000000000602082015250565b6000610c25602183610889565b9150610c3082610bc9565b604082019050919050565b60006020820190508181036000830152610c5481610c18565b9050919050565b7f4e487b7100000000000000000000000000000000000000000000000000000000600052601160045260246000fd5b6000610c958261099c565b9150610ca08361099c565b925082821015610cb357610cb2610c5b565b5b828203905092915050565b7f496e73756666696369656e742062616c616e6365000000000000000000000000600082015250565b6000610cf4601483610889565b9150610cff82610cbe565b602082019050919050565b60006020820190508181036000830152610d2381610ce7565b9050919050565b7f66726f6d203d20746f0000000000000000000000000000000000000000000000600082015250565b6000610d60600983610889565b9150610d6b82610d2a565b602082019050919050565b60006020820190508181036000830152610d8f81610d53565b9050919050565b6000610da18261099c565b9150610dac8361099c565b9250827fffffffffffffffffffffffffffffffffffffffffffffffffffffffffffffffff03821115610de157610de0610c5b565b5b82820190509291505056fea2646970667358221220009728106f95ebc2329c2953107376397c01843f84985c570dd311430b20529b64736f6c634300080d0033",
  "immutableReferences": {},
  "source": "// SPDX-License-Identifier: MIT\npragma solidity ^0.8.13;\n\ncontract ERC20 {\n  string public name;\n  string public symbol;\n  uint8 public decimals = 18;\n  uint256 public totalSupply;\n\n  mapping(address => uint256) private balances;\n  mapping(address => mapping(address => uint256)) private allowances;\n\n  event Transfer(address indexed _from, address indexed _to, uint256 _value);\n  event Approval(address indexed _owner, address indexed _spender, uint256 _value);\n\n  constructor(string memory _name, string memory _symbol, uint256 _totalSupply) {\n    name = _name;\n    symbol = _symbol;\n    totalSupply = _totalSupply;\n    balances[msg.sender] = totalSupply;\n  }\n\n  function balanceOf(address _owner) external view returns (uint256) {\n    return balances[_owner];\n  }\n\n  function allownace(address _owner, address _spender) public view returns (uint256) {\n    return allowances[_owner][_spender];\n  }\n\n  function transfer(address _to, uint256 _value) external returns (bool) {\n    _transfer(msg.sender, _to, _value);\n    return true;\n  }\n\n  function transferFrom(address _from, address _to, uint256 _value) external returns (bool) {\n    require(allowances[_from][msg.sender] >= _value, \"Transfer amount exceeds allownace\");\n    _transfer(_from, _to, _value);\n    allowances[_from][msg.sender] -= _value;\n    return true;\n  }\n\n  function approve(address _spender, uint256 _value) public returns (bool) {\n    allowances[msg.sender][_spender] = _value;\n    emit Approval(msg.sender, _spender, _value);\n    return true;\n  }\n\n  function _transfer(address _from, address _to, uint256 _value) private {\n    require(_value <= balances[_from], \"Insufficient balance\");\n    require(_from != _to, \"from = to\");\n    balances[_from] -= _value;\n    balances[_to] += _value;\n    emit Transfer(_from, _to, _value);\n  }\n}\n",
  "sourcePath": "/Users/naokiyazawa/Desktop/work/dApp/dex/contracts/ERC20.sol",
  "compiler": {
    "name": "solc",
    "version": "0.8.13+commit.abaa5c0e.Emscripten.clang"
  },
  "schemaVersion": "3.4.6",
  "updatedAt": "2022-04-02T04:40:16.018Z",
  "networkType": "ethereum",
  "devdoc": {
    "kind": "dev",
    "methods": {},
    "version": 1
  },
  "userdoc": {
    "kind": "user",
    "methods": {},
    "version": 1
  }
}